{
  "_format": "hh-sol-artifact-1",
  "contractName": "Transactions",
  "sourceName": "contracts/Transactions.sol",
  "abi": [
    {
      "anonymous": false,
      "inputs": [
        {
          "indexed": false,
          "internalType": "address",
          "name": "from",
          "type": "address"
        },
        {
          "indexed": false,
          "internalType": "address",
          "name": "receiver",
          "type": "address"
        },
        {
          "indexed": false,
          "internalType": "uint256",
          "name": "amount",
          "type": "uint256"
        },
        {
          "indexed": false,
          "internalType": "uint256",
          "name": "timestamp",
          "type": "uint256"
        }
      ],
      "name": "Transfer",
      "type": "event"
    },
    {
      "inputs": [
        {
          "internalType": "address payable",
          "name": "receiver",
          "type": "address"
        },
        {
          "internalType": "uint256",
          "name": "amount",
          "type": "uint256"
        }
      ],
      "name": "addToBlockchain",
      "outputs": [],
      "stateMutability": "nonpayable",
      "type": "function"
    },
    {
      "inputs": [],
      "name": "getAllTransactions",
      "outputs": [
        {
          "components": [
            {
              "internalType": "address",
              "name": "sender",
              "type": "address"
            },
            {
              "internalType": "address",
              "name": "receiver",
              "type": "address"
            },
            {
              "internalType": "uint256",
              "name": "amount",
              "type": "uint256"
            },
            {
              "internalType": "uint256",
              "name": "timestamp",
              "type": "uint256"
            }
          ],
          "internalType": "struct Transactions.TransferStruct[]",
          "name": "",
          "type": "tuple[]"
        }
      ],
      "stateMutability": "view",
      "type": "function"
    }
  ],
  "bytecode": "0x608060405234801561001057600080fd5b50610693806100206000396000f3fe608060405234801561001057600080fd5b50600436106100365760003560e01c806327506f531461003b578063b64782e514610059575b600080fd5b610043610075565b60405161005091906104cb565b60405180910390f35b610073600480360381019061006e9190610334565b610194565b005b60606001805480602002602001604051908101604052809291908181526020016000905b8282101561018b57838290600052602060002090600402016040518060800160405290816000820160009054906101000a900473ffffffffffffffffffffffffffffffffffffffff1673ffffffffffffffffffffffffffffffffffffffff1673ffffffffffffffffffffffffffffffffffffffff1681526020016001820160009054906101000a900473ffffffffffffffffffffffffffffffffffffffff1673ffffffffffffffffffffffffffffffffffffffff1673ffffffffffffffffffffffffffffffffffffffff1681526020016002820154815260200160038201548152505081526020019060010190610099565b50505050905090565b60016000808282546101a69190610526565b92505081905550600160405180608001604052803373ffffffffffffffffffffffffffffffffffffffff1681526020018473ffffffffffffffffffffffffffffffffffffffff16815260200183815260200142815250908060018154018082558091505060019003906000526020600020906004020160009091909190915060008201518160000160006101000a81548173ffffffffffffffffffffffffffffffffffffffff021916908373ffffffffffffffffffffffffffffffffffffffff16021790555060208201518160010160006101000a81548173ffffffffffffffffffffffffffffffffffffffff021916908373ffffffffffffffffffffffffffffffffffffffff160217905550604082015181600201556060820151816003015550507f9ed053bb818ff08b8353cd46f78db1f0799f31c9e4458fdb425c10eccd2efc44338383426040516102fe9493929190610486565b60405180910390a15050565b6000813590506103198161062f565b92915050565b60008135905061032e81610646565b92915050565b6000806040838503121561034757600080fd5b60006103558582860161030a565b92505060206103668582860161031f565b9150509250929050565b600061037c8383610413565b60808301905092915050565b610391816105ca565b82525050565b6103a08161057c565b82525050565b6103af8161057c565b82525050565b60006103c0826104fd565b6103ca8185610515565b93506103d5836104ed565b8060005b838110156104065781516103ed8882610370565b97506103f883610508565b9250506001810190506103d9565b5085935050505092915050565b6080820160008201516104296000850182610397565b50602082015161043c6020850182610397565b50604082015161044f6040850182610468565b5060608201516104626060850182610468565b50505050565b610471816105c0565b82525050565b610480816105c0565b82525050565b600060808201905061049b60008301876103a6565b6104a86020830186610388565b6104b56040830185610477565b6104c26060830184610477565b95945050505050565b600060208201905081810360008301526104e581846103b5565b905092915050565b6000819050602082019050919050565b600081519050919050565b6000602082019050919050565b600082825260208201905092915050565b6000610531826105c0565b915061053c836105c0565b9250827fffffffffffffffffffffffffffffffffffffffffffffffffffffffffffffffff0382111561057157610570610600565b5b828201905092915050565b6000610587826105a0565b9050919050565b6000610599826105a0565b9050919050565b600073ffffffffffffffffffffffffffffffffffffffff82169050919050565b6000819050919050565b60006105d5826105dc565b9050919050565b60006105e7826105ee565b9050919050565b60006105f9826105a0565b9050919050565b7f4e487b7100000000000000000000000000000000000000000000000000000000600052601160045260246000fd5b6106388161058e565b811461064357600080fd5b50565b61064f816105c0565b811461065a57600080fd5b5056fea2646970667358221220fe0adfbeb7dee2d414082871af46a81d7e1bf381d417d8ef6e78ac59e3a7c31864736f6c63430008000033",
  "linkReferences": {},
  "deployedLinkReferences": {}
}